:020000040000FA
:100000000C9462000C948A000C948A000C948A0070
:100010000C948A000C948A000C948A000C948A0038
:100020000C948A000C948A000C948A000C948E0420
:100030000C948A000C948A000C948A000C948A0018
:100040000C9444040C948A000C948A000C948A004A
:100050000C948A000C948A000C948A000C948A00F8
:100060000C948A000C948A000000000024002700F1
:100070002A0000000000250028002B0000000000DE
:1000800023002600290004040404040404040202DA
:100090000202020203030303030301020408102007
:1000A0004080010204081020010204081020000012
:1000B0000008000201000003040700000000000027
:1000C0000000620711241FBECFEFD8E0DEBFCDBF16
:1000D00011E0A0E0B1E0E6EDF0E102C005900D9284
:1000E000AE32B107D9F721E0AEE2B1E001C01D9216
:1000F000A93EB207E1F710E0C2E6D0E004C02197C4
:10010000FE010E946308C136D107C9F70E944A0563
:100110000C9469080C940000CF92DF92EF92FF924A
:10012000DC01A03282E0B807D4F5A53BB10514F09C
:10013000A4EBB0E04091CF0128E830E0241B310966
:1001400047FD3395220F331F220F331F6901330FF1
:10015000EE08FF084091D00128E532E0241B310968
:1001600047FD3395220F331F220F331F032E000C40
:10017000440B550B2C193D094E095F09B7FF02C00E
:10018000B0E0A0E00E941E0824EB30E040E050E028
:100190000E94F407C20ED31EE41EF51ED601E091A4
:1001A000CE01EC3080F52091CF0188E890E0821BF1
:1001B000910927FD9395880F991F880F991FA817FC
:1001C000B90784F02091D00188E592E0821B910963
:1001D00027FD9395880F991F880F991FA817B907B6
:1001E0000CF4CD010297880F991F4FB7F8942E2F6A
:1001F00030E0F901EE0FFF1FE20FF31FE655FE4F4F
:10020000928381834FBFFF90EF90DF90CF9008954E
:1002100096E0899FD0011124A55CBE4F90967C93F7
:100220006E935F9791E091969C939197E091A801CE
:10023000F091A9019091A701992339F0309751F0DD
:10024000811108C0809157010994309719F05C968C
:100250008C91FACF0895CF92DF92EF92FF920F9395
:100260001F9396E0899FF0011124E55CFE4F11A2D7
:10027000278D30A12130310551F178F02230310540
:1002800009F451C02330310509F452C01F910F9178
:10029000FF90EF90DF90CF9008956623B9F361E06F
:1002A00070E00E9408012FB7F89480913701909177
:1002B0003801A0913901B0913A012FBF8093930189
:1002C00090939401A0939501B0939601DFCF9FB7CF
:1002D000F894C0903701D0903801E0903901F09047
:1002E0003A019FBF009193011091940120919501D3
:1002F00030919601C01AD10AE20AF30A0091A501D1
:100300001091A60130E020E00C151D052E053F05DB
:1003100050F462E070E01F910F91FF90EF90DF903A
:10032000CF900C9408016111B1CF63E070E0F3CF7E
:1003300070E060E0F0CF833081F028F4813099F0F4
:100340008230A9F008958730A9F08830C9F0843050
:10035000B1F4809180008F7D03C0809180008F7701
:1003600080938000089584B58F7784BD089584B507
:100370008F7DFBCF8091B0008F778093B000089580
:100380008091B0008F7DF9CFCF93DF93282F30E09D
:10039000F901E255FF4F8491F901E656FF4FD491E0
:1003A000F901EA57FF4FC491CC23A1F081110E94BB
:1003B0009B01EC2FF0E0EE0FFF1FE458FF4FA591DB
:1003C000B491EC91ED2381E090E009F480E0DF91BD
:1003D000CF91089580E090E0FACF1F93CF93DF9301
:1003E000282F30E0F901E255FF4F8491F901E656DC
:1003F000FF4FD491F901EA57FF4FC491CC23A9F0E4
:10040000162F81110E949B01EC2FF0E0EE0FFF1FD1
:10041000EE58FF4FA591B4918FB7F894EC9111115C
:1004200008C0D095DE23DC938FBFDF91CF911F9161
:100430000895DE2BF8CFCF93DF9390E0FC01E656D2
:10044000FF4F24918A579F4FFC0184918823C9F064
:1004500090E0880F991FFC01E859FF4FA591B491D6
:10046000FC01EE58FF4FC591D49161110DC09FB7AB
:10047000F8948C91209582238C938881282328835B
:100480009FBFDF91CF910895623051F49FB7F894E8
:100490003C91822F809583238C93E8812E2BEFCF84
:1004A0008FB7F894EC912E2B2C938FBFEACF3FB7E8
:1004B000F8948091330190913401A0913501B0916D
:1004C000360126B5A89B05C02F3F19F00196A11D46
:1004D000B11D3FBFBA2FA92F982F8827BC01CD018E
:1004E000620F711D811D911D42E0660F771F881FED
:1004F000991F4A95D1F708958F929F92AF92BF921C
:10050000CF92DF92EF92FF920E9457024B015C0163
:100510008FE0C82ED12CE12CF12C0E9457026819D3
:1005200079098A099B09683E734081059105A8F302
:1005300021E0C21AD108E108F10888EE880E83E0B4
:10054000981EA11CB11CC114D104E104F10429F7C7
:10055000FF90EF90DF90CF90BF90AF909F908F90E3
:100560000895862F642F0C941B02862F642F0C9401
:10057000ED01862F0C94C401AF92BF92CF92DF920F
:10058000EF92FF920F931F93CF93DF936C017B0148
:100590008B01040F151FEB015E01AE18BF08C017D9
:1005A000D10759F06991D601ED91FC910190F0814C
:1005B000E02DC6010995892B79F7C501DF91CF910F
:1005C0001F910F91FF90EF90DF90CF90BF90AF9071
:1005D0000895089590E080E00895CF93DF93EC01B3
:1005E00060E08E810E94ED0161E08E810E94ED014C
:1005F00060E08E810E94ED018BE891E00197F1F7B8
:10060000DF91CF910895CF92DF92EF92FF920F93F7
:100610001F93CF93DF936C017C0187E0E80EF11C00
:10062000D0E0C0E0062F10E0B8010C2E02C0759596
:1006300067950A94E2F76170F70181917F010E944A
:10064000ED012196C430D10579F7C601DF91CF9134
:100650001F910F91FF90EF90DF90CF900C94ED02DF
:10066000CF92DF92EF92FF920F931F93CF93DF937E
:10067000EC01F62E642F8C810E94ED018D818F3F5D
:1006800019F060E00E94ED010F2D10E08F8584FFCE
:1006900025C06E0187E0C80ED11CF12CE12CB801F9
:1006A0000E2C02C0759567950A94E2F76170F60109
:1006B00081916F010E94ED01FFEFEF1AFF0A88E0C0
:1006C000E816F10461F7CE01DF91CF911F910F91F0
:1006D000FF90EF90DF90CF900C94ED02B80184E092
:1006E000759567958A95E1F7CE010E9403036F2DFA
:1006F000CE01DF91CF911F910F91FF90EF90DF908E
:10070000CF900C940303CF93DF93823029F4909120
:10071000E00198609093E0018093E4011092E5017C
:1007200080E48093E60180E18093E70180E5809397
:10073000E80161E08091D5010E941B028091D60101
:100740008F3F19F061E00E941B0261E08091D701A8
:100750000E941B02C1EDD1E09E01215D31408091DC
:10076000E00184FD0BC084E090E021962817390752
:1007700044F461E08E810E941B02EECF88E090E09D
:10078000F4CF8BE39DE00197F1F760E08091D50114
:100790000E94ED0160E08091D7010E94ED018091FF
:1007A000D6018F3F19F060E00E94ED016091E001F9
:1007B00064FD45C063E081ED91E00E940303CBE45A
:1007C000D6E4CE010197F1F763E081ED91E00E945C
:1007D00003032197F1F763E081ED91E00E940303A9
:1007E00083E592E00197F1F762E081ED91E00E94EC
:1007F00003036091E001606240E081ED91E00E94BE
:10080000300384E08093E10140E06CE081ED91E011
:100810000E94300340E061E081ED91E00E943003EE
:100820008BE39FE10197F1F782E08093E20140E0E2
:1008300066E081ED91E0DF91CF910C94300360622E
:1008400040E081ED91E00E9430038BE496E4019753
:10085000F1F76091E001606240E081ED91E00E947B
:10086000300383E592E00197F1F76091E001606267
:1008700040E081ED91E00E943003BBCF41E00E9457
:10088000300381E090E008951F920F920FB60F920F
:1008900011242F933F938F939F93AF93BF93809196
:1008A000370190913801A0913901B0913A0130910E
:1008B000320123E0230F2D3758F50196A11DB11DFC
:1008C000209332018093370190933801A09339012E
:1008D000B0933A018091330190913401A091350198
:1008E000B09136010196A11DB11D80933301909303
:1008F0003401A0933501B0933601BF91AF919F9120
:100900008F913F912F910F900FBE0F901F901895D0
:1009100026E8230F0296A11DB11DD2CF1F920F9280
:100920000FB60F9211242F933F934F935F936F93C2
:100930007F938F939F93AF93BF93CF93DF93EF9367
:10094000FF9380912F01C0912E01D0E087FF24C03A
:10095000109285001092840080912F018F5F809308
:100960002F0180912F01082E000C990B8C179D07E9
:1009700024F480912F018C30C4F1809184009091F7
:100980008500049680349C4908F47AC080918400E4
:1009900090918500049676C080912F01082E000C5E
:1009A000990B8C179D07C4F6E0912F018E2FEE0F47
:1009B000990BFC01EE0FFF1FE80FF91FE655FE4FE4
:1009C000808186FFC9CFE0912F018E2FEE0F990B0A
:1009D000FC01EE0FFF1FE80FF91FE655FE4F808167
:1009E00060E08F730E94ED01B7CF209184003091B9
:1009F0008500E0912F018E2FEE0F990BFC01EE0F79
:100A0000FF1FE80FF91FE655FE4F81819281820F8B
:100A1000931F9093890080938800E0912F018E2F7F
:100A2000EE0F990BFC01EE0FFF1FE80FF91FE655C3
:100A3000FE4F808186FF11C0E0912F018E2FEE0FB7
:100A4000990BFC01EE0FFF1FE80FF91FE655FE4F53
:100A5000808161E08F730E94ED01FF91EF91DF9142
:100A6000CF91BF91AF919F918F917F916F915F9146
:100A70004F913F912F910F900FBE0F901F9018959F
:100A800080E49CE990938900809388008FEF8093A5
:100A90002F01E3CF789484B5826084BD84B58160F2
:100AA00084BD85B5826085BD85B5816085BD809139
:100AB0006E00816080936E001092810080918100B1
:100AC00082608093810080918100816080938100A9
:100AD000809180008160809380008091B10084606B
:100AE0008093B1008091B00081608093B0008091CC
:100AF0007A00846080937A0080917A00826080938B
:100B00007A0080917A00816080937A0080917A00E7
:100B1000806880937A001092C10082E00E94830373
:100B20008091CE018C3008F051C061E089E00E94D4
:100B30001B028091CE01282F30E0F901EE0FFF1F3C
:100B4000E20FF31FE655FE4F9081907C99609083F1
:100B50001092CF011092D0012CE0622F0E94570812
:100B6000829FB001112430E020E0AB01420F531FFF
:100B7000FA01EE0FFF1FE40FF51FE655FE4F9081BF
:100B800096FD16C02F5F3F4F2C30310571F7811154
:100B90000FC01092800082E0809381001092850047
:100BA00010928400B19A80916F00826080936F00F0
:100BB000E091CE018E2F90E0FC01EE0FFF1FE80FB9
:100BC000F91FE655FE4F808180648083412C512CB3
:100BD0003201439440E0842E40E0942E54EBC52E25
:100BE000D12C51E05093A7018FB7F8944091370171
:100BF000509138016091390170913A018FBF809115
:100C0000970190919801A0919901B0919A01481B88
:100C1000590B6A0B7B0B8091A3019091A401B0E06A
:100C2000A0E084179507A607B70708F024C1C0E025
:100C30008091A101C81760F4E0919D01F0919E019F
:100C4000EC0FF11D62E080810E941B02CF5FF0CFAC
:100C5000312C8091A201381608F05FC0032D10E0FE
:100C6000E0919F01F091A001E00FF11F61E0808110
:100C70000E941B02E0919F01F091A001E00FF11F83
:100C800060E080810E94ED01D301C201032C04C009
:100C9000880F991FAA1FBB1F0A94D2F75C017C0121
:100CA000E094F094212C8091A1012816F8F4C22D33
:100CB000D0E0E0919D01F0919E01EC0FFD1F80813D
:100CC0000E94C4012496CC0FDD1FC55CDE4F892B2A
:100CD00041F4888199818A299B2999838883239467
:100CE000E2CF888199818E219F21F7CFE0919F01EA
:100CF000F091A001E00FF11F61E080810E94ED0101
:100D000080919F019091A001080F191F60E0F801E8
:100D100080810E941B0233949CCF0BE311E0E80119
:100D20008F8D98A1892B31F41C8E8FEF9FEF9E8FB2
:100D30008D8F19A2269691E0C737D90789F7B12C74
:100D40008091A101B81608F053C0A12CEB2CF12C16
:100D5000EE0CFF1CF701ED5BFE4F7F012091A2011D
:100D6000A21608F043C0F701608171810A2C02C00D
:100D7000769567950A94E2F7B29E900111242A0DA8
:100D8000311DEBE3F1E080E0458D568D24173507EA
:100D900009F496C08F5F36968A30B1F760FF24C0A1
:100DA000EBE3F1E090E080E0448D411118C0E09168
:100DB0009B01F0919C01E20FF31F408156E0589F88
:100DC000F001599FF00D1124E55CFE4F448F368FE2
:100DD000258F10A2178E61E00E942B0105C001969D
:100DE00036968A30910501F7A394B8CFB394A8CF73
:100DF00080E0F80191A19111892F0A5F1F4FC01760
:100E0000D107B9F79FB7F894409137015091380155
:100E10006091390170913A019FBF409397015093BF
:100E200098016093990170939A01882321F1809130
:100E30005C01882301F180915A0190915B01019737
:100E4000D1F460915701611119C0109231011092D3
:100E50003001C0913001D0913101C53BD105A4F4DE
:100E6000CE010E948C000E947C022196D093310119
:100E7000C0933001EECF1092A701E7CF41E081EDA2
:100E800091E00E943003E1CFD0923101C092300155
:100E9000C0913001D0913101D7FD0BC0CE010E942D
:100EA0008C000E947C022197D0933101C0933001C5
:100EB000EFCF8114910409F494CE0E94000091CEEA
:100EC00061708ACF80912E018C3008F089C091E04A
:100ED000980F90932E018093CE0190E0FC01EE0FCD
:100EE000FF1FE80FF91FE655FE4F88EB9BE092834A
:100EF00081831092D4011092D30186E291E0909305
:100F0000D2018093D1018DE08093D5018FEF809342
:100F1000D6018CE08093D7018BE08093D8018AE0E2
:100F20008093D90189E08093DA0188E08093DB0126
:100F30001092DC011092DD011092DE011092DF01AF
:100F40001092E00181E00E94830310923D01109213
:100F5000410110924001109242018CE191E0909386
:100F60003C0180933B01E7E5F1E01082148213829B
:100F70001582369681E0E339F807B9F784E091E00D
:100F800090939E0180939D0180E091E09093A00159
:100F900080939F0184E08093A1018093A20188E067
:100FA00091E090939C0180939B018AE090E0909364
:100FB000A4018093A30184EF91E09093A601809314
:100FC000A5011092A9011092A80110929701109208
:100FD00098011092990110929A011092A701089518
:100FE0008FEF8093CE0185CF052E97FB1EF40094E2
:100FF0000E940B0857FD07D00E94260807FC03D06B
:101000004EF40C940B0850954095309521953F4F28
:101010004F4F5F4F089590958095709561957F4FE4
:101020008F4F9F4F08950E944808A59F900DB49F31
:10103000900DA49F800D911D11240895B7FF0C946D
:1010400013080E941308821B930B0895A1E21A2E25
:10105000AA1BBB1BFD010DC0AA1FBB1FEE1FFF1F5C
:10106000A217B307E407F50720F0A21BB30BE40BAC
:10107000F50B661F771F881F991F1A9469F76095F3
:101080007095809590959B01AC01BD01CF010895AD
:10109000A29FB001B39FC001A39F700D811D1124B9
:1010A000911DB29F700D811D1124911D0895991BF2
:1010B00079E004C0991F961708F0961B881F7A954F
:1010C000C9F780950895EE0FFF1F0590F491E02D6C
:1010D0000994F894FFCF070605040302010037388E
:1010E00039253435362A3132332D43303D2B00003B
:1010F0000000B102B502B902000000003E04BC02CB
:04110000EA02E90214
:107E0000112484B714BE81FFF0D085E080938100F7
:107E100082E08093C00088E18093C10086E0809377
:107E2000C20080E18093C4008EE0C9D0259A86E02C
:107E300020E33CEF91E0309385002093840096BBD3
:107E4000B09BFECF1D9AA8958150A9F7CC24DD24C4
:107E500088248394B5E0AB2EA1E19A2EF3E0BF2EE7
:107E6000A2D0813461F49FD0082FAFD0023811F036
:107E7000013811F484E001C083E08DD089C08234E0
:107E800011F484E103C0853419F485E0A6D080C0E4
:107E9000853579F488D0E82EFF2485D0082F10E0AE
:107EA000102F00270E291F29000F111F8ED06801E7
:107EB0006FC0863521F484E090D080E0DECF843638
:107EC00009F040C070D06FD0082F6DD080E0C81688
:107ED00080E7D80618F4F601B7BEE895C0E0D1E017
:107EE00062D089930C17E1F7F0E0CF16F0E7DF06D8
:107EF00018F0F601B7BEE89568D007B600FCFDCFD4
:107F0000A601A0E0B1E02C9130E011968C91119780
:107F100090E0982F8827822B932B1296FA010C0160
:107F200087BEE89511244E5F5F4FF1E0A038BF0790
:107F300051F7F601A7BEE89507B600FCFDCF97BE46
:107F4000E89526C08437B1F42ED02DD0F82E2BD052
:107F50003CD0F601EF2C8F010F5F1F4F84911BD097
:107F6000EA94F801C1F70894C11CD11CFA94CF0C13
:107F7000D11C0EC0853739F428D08EE10CD085E9AC
:107F80000AD08FE07ACF813511F488E018D01DD067
:107F900080E101D065CF982F8091C00085FFFCCF94
:107FA0009093C60008958091C00087FFFCCF809118
:107FB000C00084FD01C0A8958091C6000895E0E648
:107FC000F0E098E1908380830895EDDF803219F02E
:107FD00088E0F5DFFFCF84E1DECF1F93182FE3DFCA
:107FE0001150E9F7F2DF1F91089580E0E8DFEE27F6
:047FF000FF270994CA
:027FFE00040479
:00000001FF
